{
  "contractName": "Uint256ToString",
  "abi": [
    {
      "inputs": [
        {
          "internalType": "uint256",
          "name": "value",
          "type": "uint256"
        }
      ],
      "name": "toString",
      "outputs": [
        {
          "internalType": "string",
          "name": "",
          "type": "string"
        }
      ],
      "stateMutability": "pure",
      "type": "function"
    }
  ],
  "bytecode": "0x610254610026600b82828239805160001a60731461001957fe5b30600052607381538281f3fe73000000000000000000000000000000000000000030146080604052600436106100355760003560e01c80636900a3ae1461003a575b600080fd5b6100666004803603602081101561005057600080fd5b81019080803590602001909291905050506100e1565b6040518080602001828103825283818151815260200191508051906020019080838360005b838110156100a657808201518184015260208101905061008b565b50505050905090810190601f1680156100d35780820380516001836020036101000a031916815260200191505b509250505060405180910390f35b60606000821415610129576040518060400160405280600181526020017f30000000000000000000000000000000000000000000000000000000000000008152509050610219565b600082905060005b60008214610153578080600101915050600a828161014b57fe5b049150610131565b60608167ffffffffffffffff8111801561016c57600080fd5b506040519080825280601f01601f19166020018201604052801561019f5781602001600182028036833780820191505090505b5090505b6000851461021257818060019003925050600a85816101be57fe5b0660300160f81b8183815181106101d157fe5b60200101907effffffffffffffffffffffffffffffffffffffffffffffffffffffffffffff1916908160001a905350600a858161020a57fe5b0494506101a3565b8093505050505b91905056fea264697066735822122092354237262b9bc1293c5d52c8d1b8e9b3188614664d33e3fc141c7214f5025f64736f6c63430006060033",
  "immutableReferences": {},
  "source": "// SPDX-License-Identifier: AGPL-3.0\npragma solidity 0.6.6;\n\nimport {IExerciceSolution} from './IExerciceSolution.sol';\nimport {ERC20} from './ERC20.sol';\nimport {IFlashLoanSimpleReceiver} from './IFlashLoanSimpleReceiver.sol';\nimport {IPoolAddressesProvider} from './IPoolAddressesProvider.sol';\nimport {IPool} from './IPool.sol';\n\nlibrary Uint256ToString {\n    \n    function toString(uint256 value) public pure returns (string memory) {\n        if (value == 0) {\n            return \"0\";\n        }\n        uint256 temp = value;\n        uint256 digits;\n        while (temp != 0) {\n            digits++;\n            temp /= 10;\n        }\n        bytes memory buffer = new bytes(digits);\n        while (value != 0) {\n            digits--;\n            buffer[digits] = bytes1(uint8(48 + value % 10));\n            value /= 10;\n        }\n        return string(buffer);\n    }\n}\n\ncontract MyAaveContract is IExerciceSolution, IFlashLoanSimpleReceiver {\n    using Uint256ToString for uint256;\n\n    IPoolAddressesProvider private iPoolAddressesProvider;\n    IPool private pool;\n    ERC20 private token;\n    ERC20 private aToken;\n    ERC20 private borrowToken;\n\n    constructor(address _tokenAddress, address _aTokenAddress, address _borrowTokenAddress, address _poolAddressesProviderAddress) public {\n        iPoolAddressesProvider = IPoolAddressesProvider(_poolAddressesProviderAddress);\n        pool = IPool(iPoolAddressesProvider.getPool());\n        aToken = ERC20(_aTokenAddress);\n        token = ERC20(_tokenAddress);\n        borrowToken = ERC20(_borrowTokenAddress);\n    }\n\n    function withdrawAallTokens() external {\n        token.transfer(msg.sender, token.balanceOf(address(this)));\n        aToken.transfer(msg.sender, aToken.balanceOf(address(this)));\n        borrowToken.transfer(msg.sender, borrowToken.balanceOf(address(this)));\n    }\n\n    function depositSomeTokens() external override {\n        token.approve(address(pool), token.balanceOf(address(this)));\n        pool.supply(address(token), token.balanceOf(address(this)), address(this), 0);\n    }\n\n\tfunction withdrawSomeTokens() external override {\n        pool.withdraw(address(token), aToken.balanceOf(address(this)), address(this));\n    }\n\n\tfunction borrowSomeTokens() external override {\n        pool.borrow(\n            address(borrowToken),\n            ((aToken.balanceOf(address(this))/(10 ** (uint256)(aToken.decimals()) * 10)) / 100) * 10 ** (uint256)(borrowToken.decimals()),\n            2,\n            0,\n            address(this)\n        );\n    }\n\n\tfunction repaySomeTokens() external override {\n        borrowToken.approve(address(pool), borrowToken.balanceOf(address(this)));\n        pool.repay(address(borrowToken), borrowToken.balanceOf(address(this)), 2, address(this));\n    }\n\n\tfunction doAFlashLoan() external override {\n        require(borrowToken.balanceOf(address(this)) == 1000001 * 10 ** 6, borrowToken.balanceOf(address(this)).toString());\n        require(ERC20(0x8Be59D90A7Dc679C5cE5a7963cD1082dAB499918).balanceOf(address(this)) == 0, \"Contract already has aTokens\");\n        pool.flashLoanSimple(\n            address(this),\n            address(borrowToken),\n            1000001 * 10 ** (uint256)(borrowToken.decimals()), \n            \"\", \n            0\n        );\n    }\n\n\tfunction repayFlashLoan() external override {}\n\n    function executeOperation(\n        address asset,\n        uint256 amount,\n        uint256 premium,\n        address initiator,\n        bytes calldata params\n    ) external override returns (bool) {\n        require(amount == 1000001 * 10 ** (uint256)(borrowToken.decimals()), \"Invalid amount\");\n        require(amount <= borrowToken.balanceOf(address(this)), \"Amount not present into the contract\");\n        uint totalDebt = amount + premium;\n        borrowToken.approve(address(pool), totalDebt);\n        // Do something with the borrowed tokens\n        return true;\n    }\n\n    function ADDRESSES_PROVIDER() external view override returns (IPoolAddressesProvider) {\n        return iPoolAddressesProvider;\n    }\n\n    function POOL() external view override returns (IPool) {\n        return pool;\n    }\n}",
  "sourcePath": "/Users/blabla/Documents/lending-101/contracts/MyAaveContract.sol",
  "compiler": {
    "name": "solc",
    "version": "0.6.6+commit.6c089d02.Emscripten.clang"
  },
  "schemaVersion": "3.4.11",
  "updatedAt": "2023-02-19T11:40:34.610Z",
  "devdoc": {
    "methods": {}
  },
  "userdoc": {
    "methods": {}
  }
}